:020000040000fa
:080000000001040000000000f3
:020000040000fa
:100200000f6321000e7922000e018800000000001b
:100210000c000700a0b2250001002000110007001b
:10022000000020000000e000020032000000020098
:10023000000000004e550200000000000040da00ff
:100240000000fe004440a900e00e20000000e00095
:100250000300320000002000a00188004440a800f4
:100260000000060091018800800078000000eb008b
:1002700015003700e280400032a0b4009101ba00be
:10028000e280400032a0b4009102ba00e280400057
:1002900032a0b4000002eb00472bde00f507b200ed
:1002a000602ce10004003a000059eb008301e900f2
:1002b000fdff3e00040037006128e100010032002c
:1002c0000082eb00040007001101ba000200e00008
:1002d000e8ff3a00000006003159ba008301e90046
:1002e0000c0032002159ba008301e90008003200f5
:1002f0000400e00003003a00e280400032a0b400b5
:10030000f5ff370011d9ba008301e900faff3a007e
:100310008100e800e180400032a0b4000000060047
:10032000564d040000000000986504000000000025
:100330007c6604000000000014450400000000007a
:10034000000178001001e200030035001061a800f0
:10035000000028001021b70030088000410880000c
:100360000200e000010032000089be00000006002b
:10037000889fbe008004780060a180000000e0003b
:1003800003003a00610007000000e0000a003500a9
:1003900060a180000900e00002003a00000478003b
:1003a00006003700000478000900400057000700ed
:1003b0000000e00001003d000084eb000800780030
:1003c0004f04be00000006000c02e20004003d00e5
:1003d0000f42ab00020032000f02ab00feff320002
:1003e0000040da00feff37000a00fa0080017800c2
:1003f000e20f500028003e0070a18000e10f500085
:1004000008003200e02120000000e000050032007a
:100410006421200085212000a62120008001780091
:1004200004003700c4202000e52020000621200021
:1004300043212000144090000004e0000400350037
:100440008009eb00144090000074a0001042980056
:10045000154090000028a30003003a0015409000ca
:100460000024a000904298008001eb0007003700b4
:10047000154090000008a300fdff320063c0780023
:100480000000fb00000b78008301e800828f510020
:10049000f7ff3a000800370030002000b0bf9f008f
:1004a000c3bf9f00d1bf9f00e2bf9f006a8057007b
:1004b00000c0da006fb99700020078000080fa00ef
:1004c000000006000a00fa0011002000b1bf9f00e2
:1004d000c0bf9f006a80570000c0da004fb8970085
:1004e0000080fa00000006000a00fa005100200017
:1004f000b1bf9f00c0bf9f006a80570000c0da00f4
:100500005fb897000080fa000000060080007800c5
:100510000000e00004003a000043210060a18800d0
:1005200001017800060037000081eb000063210024
:10053000808f500002003e0061a188000001eb00a6
:100540000200780000000600020ab900001bb90092
:100550000200b80081004200810043000000060054
:10056000889fbe008a9fbe00010578000100e00060
:100570000400350008003c000000e00020003200cc
:100580000500370060001000e080180002003b000a
:1005900001f02c001a0037000004be006011b80002
:1005a0006b0920000982cf00020039000882cf00c9
:1005b0000441b000694252000e00320008003b00c6
:1005c00082817100610164008904d1000884d30034
:1005d0008b05e8000442e800f9ff3a000500370007
:1005e0000804440089844c008b05e9000442e900ba
:1005f000fbff3a007e0107000af0a70001f0a0000f
:100600004f05be004f04be0000000600140020008d
:100610009d013700839f68000100e00002003d005b
:1006200060001000e08018000300e00002003d00c0
:1006300060011100e0811900ae0107004f00e000e9
:1006400002003b0060001000e0801800000006007f
:10065000f4ff2f008c01370003f0a200889fbe003a
:100660008a9fbe008c1f7800b2010700b9013300d9
:100670006450e1004f0032006420e100520032007b
:1006800003826c0007003b000905d0000306d00080
:10069000820f54000c065d00020039000200320097
:1006a00089017800030678008582550004003d002a
:1006b0000003fd008103fd008502ea008b854200f6
:1006c000840f720002003b0060001000e080180000
:1006d0006011b8000005eb007a28e1000a0039003b
:1006e00006007800c75ddd00f707b200878075005f
:1006f0002d003700828171000a01780061056000d9
:100700008180d1000080d3008502e900f9ff3b0021
:10071000060440008784480002003b006004140087
:10072000e0841c000988a300070032008a81710060
:1007300082817100610164008904d1000884d300c2
:100740008b05e800170037000978a30013003a0072
:100750000b00e000130034008b05e900080444009e
:1007600089844c000a4474000978a3000d003a0003
:100770000b00e000070034008b05e900080444008a
:1007800089844c0001003a000b0020000978a30086
:10079000f7ff32000001eb00020037008281710098
:1007a0000a017800120107000cf0a70001f0a00078
:1007b000710137006420e10002003a00838f6c0071
:1007c000710133000801be000200be006a0137005b
:1007d0000001be006f0107000470a70003f0a10034
:1007e0006509b100160032000d0035006828e100ef
:1007f00006003500f0ff2f00f1ff27000300e000a6
:1008000013003b000100280000000500000040002c
:10081000818048008502e900fcff3a0008003700ab
:10082000f88f420002003c008000eb000000050051
:100830008100d1000080d3008502e800fcff3a006f
:100840000300e00002003b0060001000e0801800a0
:1008500000000600889fbe008a9fbe008c1f7800a3
:10086000340107003b01330003866c006450e10053
:100870002e0032006420e100330032006150e100bc
:100880002f0032006120e1003100320085855500e3
:10089000eb07b00009002000080420000500370025
:1008a0000804440089844c000a0031000603430018
:1008b00087834b000001530081815b00f8ff330008
:1008c0000203be000800a0000804440089844c0014
:1008d000f6ff3900c639dd008301730001003200e4
:1008e000130020008904d1000884d3000998a300d4
:1008f000050032000800a7000300a0008904d10011
:100900000884d3008b05e8008904d1000884d30053
:100910000001eb000281d200b500070001f0a10048
:100920000cf0a70001f0a000130137006420e100e3
:10093000150132000801be000200be00f7ff3700bb
:100940006120e100100132006000b800f3ff3700c1
:100950000000200001f82700f0ff3700889fbe004c
:100960008a9fbe008c1f7800f2000700f900330058
:1009700003866c006450e100240032006420e10032
:10098000270032006150e100220032006120e100c6
:10099000210032008b854200eb07b1000134b80022
:1009a000003ab8000804420089844a00013ab800bd
:1009b0000030b8008880400009014a00040033007c
:1009c0000000400081804800020149008b05e900d9
:1009d000c909dd008301700001003200130020000e
:1009e000c814de004814dd004709de001200b20022
:1009f000c808de00088470007d00070001f0a10037
:100a00000cf0a70001f0a000db0037006120e1003e
:100a1000dd0032000801be000200be00f7ff370013
:100a20006150e100fcff3a00d700370004002000cd
:100a300095003700889fbe008a9fbe008c1f7800fb
:100a4000bc0007001002200002003b00c08d88009f
:100a5000c00037008a0062006408e10002003a002a
:100a6000c08d8800c80037006108e100fcff32003b
:100a70000800be000304780076ff070001f0a10023
:100a8000d900070008f0a600040037000001be00ee
:100a900091042400b0fd2000effe070009f0a7003c
:100aa00001f0a200b40037000081eb0033013700f1
:100ab000889fbe008a9fbe008c1f78000004be0085
:100ac000b40007000478a30026003a006120e1008a
:100ad0002500320009f8a30025003a006420e10057
:100ae00021003200f507b1000508a3000200320022
:100af00000004000818048006044b80003102000de
:100b000002002000000040008180480008054400e9
:100b100089854c000a0541008b8549000a05500073
:100b20008b855800030033000a00be0002047400e5
:100b3000838474008301d1000281d300830f71008c
:100b4000f0ff3a008904d1000884d3006001490015
:100b500082017800c1adde00fb07b0002400070071
:100b6000850037000960a0000800be008200370041
:100b700012022000c28d8800f0ff2f00f1ff270035
:100b80007d0037000001be00820007000470a7004e
:100b900003f0a10003f8a30013003a006509b100b7
:100ba00010003200090035006928e100020035001c
:100bb000010028000000050000004000818048007e
:100bc0008502e900fcff3a0000000600f88f4200b1
:100bd000050035008100d1000080d3008502e800c7
:100be000fcff3a00000006008000eb00000005005a
:100bf00081002000618055000b003d000b002000ab
:100c000061fe2f000100e1001d00340082817100af
:100c1000610164008904d1000884d3000000e80069
:100c2000faff3a00710020006100640003007000c8
:100c3000020060000900320061044400e0844c00be
:100c40000988a500050032008b05e8006808e1006e
:100c500002003a008904d1000884d300f20f20007a
:100c60000258e10005003d00c75ddd00f907b20054
:100c70008980750008007800000006000bf8270046
:100c80008b00780000000500889fbe008a9fbe0090
:100c9000841f7800270007004f0078001100330000
:100ca000f0ff2f00838f6c0006003b0004056500f9
:100cb0000a00a7000800370009f0a6001000200075
:100cc00008003700820f5400838f5c000300390056
:100cd0001000200001003e000000200009f0a700e5
:100ce0000000ea004f05be004f04be000000e00017
:100cf000000006006022b800060220000000d000bc
:100d00008180d2000482d2008582d2000000a0003f
:100d10000202520083825a000300310002024200a4
:100d200083824a000000a1000603e900f3ff3a00b5
:100d3000000006000004be00160007000003be000d
:100d40000405be000200be0012000700844f7500bb
:100d5000000006000200be006450e10005003600fd
:100d60006420e100020036000968a30001003a0097
:100d70000800be000160a0004f0678004f05be00cd
:100d80004f04be0000000600f0ff2f00f1ff270017
:100d9000f9ff3700c70ade00f107b200f50fb20015
:100da00008003200e1cf4200020032000170a000d2
:100db00024000500810f70000100320004080500c6
:100dc00044000500810f700002003a001400050085
:100dd0008502e9000000400081c04800fcff3b00a4
:100de0000170a00024000500889fbe008a9fbe00fd
:100df0008c9fbe000004be00e6ff07000800be0096
:100e0000890678006420e1000800390004003200ff
:100e10000160a00012022000c28d8800530037003c
:100e200091fc2300b0fd20004e0037000006eb00cf
:100e300009f0a10003f82300020020000800be0012
:100e4000f2fd07000600340001f823000000200036
:100e50000801be007ffe07000004be002c00200039
:100e60000800be0093e82300320a2300e7fd0700d4
:100e7000120034000801be00d1fd2300703d2b009c
:100e8000f6fd07000005be00b3f32300f27a26004a
:100e90000800be00b1fe070003f823000200200096
:100ea000edfd07000801be00ecfd07000a01be00d1
:100eb00068fe07000004be000c06e8000800be0043
:100ec00001f0a1000200200003982300cffd0700dd
:100ed0000800be00160035000801be009ffe070096
:100ee0000005be0032cd2c0043fb2300dbfd0700d4
:100ef000809fbe001269280003d52b000a00be00a7
:100f000096fe0700620f210013ef2b00d3fd0700b0
:100f10000a01be0091fe07004f01be004dfe070012
:100f20000801be008dfe07000801be00cbfd0700d2
:100f30000c00e0000b0032000c10a70001f0a20032
:100f4000b2fd200093fc23006260e1000400320047
:100f500022a9200063f023000c10a70063f82300ef
:100f6000befd07000df0a70001f0a2004f06be0075
:100f70004f05be004f04be0000000600889fbe0063
:100f80008a9fbe008c9fbe00820578000004be00d0
:100f900080ff07000800be006420e1000700390060
:100fa00002003a00f1ff2700f0ff2f000160a000cf
:100fb00012022000c28d8800550037006120e10038
:100fc00003003a000b00a70001f82300500037008f
:100fd00001f0a10002002100936424008bfd0700b2
:100fe0000800be0004003500b2fd2000930c240070
:100ff0004b0007000004be000005eb000b00a6003c
:101000004f0dde0001f0a1000004be0032982f0059
:1010100023ea230051fe07000001eb0003f0230048
:101020000b00a70003f823008cfd0700e8fd070074
:101030000000a7000a00a20049fd07000b00e00025
:10104000030032000200200003f0230082fd0700ad
:1010500001f0a2000006be0002002000930424005c
:101060003efe07000801be007cfd0700809fbe0019
:101070000c00be0022a22a00d3a7230037fe0700df
:101080004f01be0075fd07000004be0001f0a10085
:1010900002002000039823005cfd07000800be004a
:1010a000190035000001be002cfe07000006be003e
:1010b000b2c52900e362230028fe070022222b008c
:1010c000f3942b0065fd07000c01be0023fe070012
:1010d000e273280083c0230060fd07000c01be00fe
:1010e0001efe070042aa2a00a3e22b005bfd0700b8
:1010f0000c01be0019fe07000801be0017fe070024
:101100000801be0055fd07000a00a70001f0a2007b
:101110004f06be004f05be004f04be000000060093
:101120000400200000003700889fbe008a9fbe0098
:101130008c1f78004f26dd00fefe070005ff330000
:101140006120e100430032006250e10041003e00b6
:101150003e0039006420e1003c0032000582550069
:101160000f003b000402e80038003a00800f5300f3
:10117000818f5b00350034000800be0003f0a10041
:1011800001f0a60003f0a0000cf0a70033fd07005b
:10119000f9fe37000603430087834b000c464600e8
:1011a0000005530081855b00020033000a03be0086
:1011b0000c00a0000402e900f6ff3b008505780062
:1011c0000602430087824b0004003a006000b8002a
:1011d00009f0a70001f0a000e7fe3700000252006e
:1011e00081825a000704e000040033000603430034
:1011f00087834b008b05e900faff3700090578006b
:101200000604be000203be006011b80078fe0700ad
:10121000e00f5200e08f5a000700350002003c004a
:101220000c08a300040032000601be0003f0a00079
:101230000cf0a70009fd07000a85680001f0a10075
:101240000af0a70001f0a000cbfe37000800be00a6
:10125000c9fe3700100220000cf0a600c08d8800e7
:10126000c9fe3700881f7800000478005001be00d6
:101270004000be000400400085804800060149008f
:1012800087814900009cbe000294be000400e1007a
:101290000588e1000690e1000798e10002003100b6
:1012a000680044001008e8004f04780000000600c1
:1012b000f4874700889fbe008a9fbe008c9fbe00b7
:1012c0008e1f78000205be000004be00d4b79f0048
:1012d000e5b79f00f6b79f0087bf9f000000eb00b7
:1012e000c0b79f00b0b79f00a0b79f0090b79f0006
:1012f00080b79f000d042000bfb097004fb097004b
:10130000000140000000e0000f003d004f08de003b
:1013100000007100c0b79f009e00070001003d0063
:1013200012002000a100070001003d001200200073
:10133000a6000700b1000700b60007000f0040003c
:10134000c8ff0700220037004f08de0000067100ca
:10135000ccb79f008f00070001003d001200200065
:101360009200070001003d001200200097000700d6
:10137000a20007000fb297009fb297002fb397000b
:10138000bfb39700a90007000000520081805a00f7
:1013900002015b0083815b0080b79f0091b79f00d3
:1013a000a2b79f00b3b79f000007eb009f000700a4
:1013b0000020e10001a8e10002b0e10003b8e10073
:1013c000010031001e0020000e005600c0b79f0033
:1013d0004fb297000400e000070035001000200025
:1013e000010020006011b8000804700089847000ba
:1013f0000a0571008b8571008d06e900beff3a0079
:101400000400e00003003d00820007000f004000e0
:1014100094ff07004fa897000000e00004003a0086
:101420000fb497009fb497002fb59700bfb59700f2
:10143000940007004f0778004f06be004f05be001e
:101440004f04be004f01b10000000600881f780065
:1014500018002000881f780095ff07008f87e9009b
:101460004f04780000000600801feb0090ff07008b
:101470008f87e90000000600889fbe008a9fbe009b
:101480008c1f78006e00070007003d007300070006
:10149000e00f5b00e08f5b0007003d0032000700bb
:1014a0000006eb00040037003400070002003d0096
:1014b0002a0007001c00200072000700e3ff07005d
:1014c0000203be000002be000c00e000010032007a
:1014d000220007000400be000601be004f0678008f
:1014e0004f05be004f04be0000000600889fbe00ee
:1014f0008a9fbe008c1f78005100070005003d0048
:1015000056000700e00f5b00e08f5b0006003d0027
:10151000040037001900070003003d006000b80018
:101520006011b8001000070056000700ceff07004a
:101530000203be000002be000c00e0000100320009
:10154000060007000400be000601be004f0678003a
:101550004f05be004f04be00000006006000b8004a
:101560006011b80000003700040250008582580066
:101570000603590087835900000006000006eb00af
:10158000e00f5200e08f5a00e00f5b00e08f5b003d
:10159000000006000180400090b79f000001eb00b2
:1015a0008fb097000100e00000000600020070000c
:1015b00090b79f000180400080b79f000001eb00c2
:1015c000ffa897000100e000000006000200700084
:1015d00080b79f00018040006faa9700cf20de00f7
:1015e00001007000f0af9f000402420025000700d8
:1015f0004f18de000002720000000600e4af9f00fa
:101600000804440089844c000a054d008b854d0078
:10161000000006003fb29700cfb297005fb397007b
:10162000efb3970000fe2f00000006003fb09700c8
:10163000cfb097005fb19700efb1970000000600b0
:101640000205be000004be00e00f5000e08f58000d
:10165000e00f5900e08f5900000006006000b8005c
:101660006011b80008045000898458000a05590028
:101670008b8559001c002000e00f5200e08f5a00bb
:10168000000006000800be000a01be0000000600bf
:101690002800fa00889fbe008a9fbe008c9fbe0073
:1016a00003866b000c0207000028a30064003a00c8
:1016b0000128a30067003a000008a30062003a0076
:1016c0000108a30065003a001e009000be089000cb
:1016d00081064000ed3fb100f4805700ee0190001c
:1016e000111ab8008e099000311bb8009e099000b5
:1016f000311cb800511db800f485570046000700a2
:10170000fe0190003a0007008b85e8003e000700cc
:101710008e09900040000700ee01900034000700a1
:101720008b85e800380007008e0990004000070014
:101730009e0990001b18b800890440000a854800e3
:10174000fe019000340007008b85e8003800070098
:10175000ee019000300007008e0990001b18b800c1
:10176000890440000a8548000a98a30008003a004e
:101770000402420085824a0006034b0087834b0027
:1017800008044c0089844c000a054d008d06e900d0
:1017900084827200850273004c3add00850272007b
:1017a0000100320015002000443ade001400b200af
:1017b0004538de00cb45dd000b007000c540de0083
:1017c000cb4ddd008b8070004549de00cb55dd0040
:1017d0000b017100c551de000d037800d701070031
:1017e00003f0a1000cf0a70003f0a000ce01370029
:1017f0001b18b8008502400006834800e0834b00b8
:1018000060044c00070037001b18b80006034000b6
:1018100087834800faff37001b18b8008703400091
:1018200008844800e0844c0060054d00000006007c
:101830001b18b8000804400089844800faff3700ec
:101840000108a300b5013a005800be005801be00cf
:10185000e3ff37000008a300b0013a000904780054
:10186000f9ff3700810378004afd07000001be0040
:101870006000b8000478a30013003a006220e10081
:1018800015003e000d0039008301d1000281d30014
:101890008180d3008301d1000281d3008180d300f5
:1018a0008301d1000281d3008180d3000538b000cc
:1018b000c42add00f300b2008381720007f0a700a4
:1018c00003f0a00000000600f3ff2700f2ff2f0046
:1018d0006110b900fbff370003ff2700f7ff370057
:1018e0008f1fd100c10107008f87e9000000e000d1
:1018f00000000600801feb00bc0107008f87e90095
:101900000000e000000006001400fa00889fbe00fe
:101910008a9fbe008c9fbe000005be000206be006e
:10192000680047000c90be000a90be00d801070076
:101930006400e1001a00320016003e006100e10080
:101940001a0032006e049000fe0490000e0b90000e
:101950009e0b90006011b8009e0590000b38b100fe
:10196000d501200082817100610164008703d100ec
:101970000683d3008984d3000884d3008502e9005c
:10198000f8ff3a009afc07000df0a70001f0a00054
:1019900065013700f1ff2700f0ff2f0062013700db
:1019a00001f8270000002000f7ff37006000b800b2
:1019b000f5ff3700dd01070005097800000006008b
:1019c000809feb00890107008f87e9000000e0009d
:1019d000000006002800fa00889fbe008a9fbe0013
:1019e0008c9fbe0007067800878669000c003b00cc
:1019f000030478008704780008f0a10009f0a10032
:101a0000840f5000858f5800860f5900890f5c00a5
:101a1000030033000cf0a20001003a000cf0a1001a
:101a20002d0107006400e1005f00320078014700eb
:101a30006408e100610032006c01470074855700c2
:101a40003200be001201be003a04be001a05be00fc
:101a50001e039000be0a90008503530006003d005f
:101a60000004fd008104fd000205fd008305fd006a
:101a70008703ea00050378000df8a3000400320094
:101a800060041400e0841c0060051d00e0851d005a
:101a90006022b8007d0320000d38e1008006eb00d5
:101aa0000b0039004433dd00f300b2008301730002
:101ab00039003700848272000d027800e10664006c
:101ac0008b85d1000a85d3008984d3000884d30094
:101ad0008703e900f7ff3b000800400089804800c9
:101ae0000a0149008b81490004003b00600010009e
:101af000e080180060011900e08119000358a3007c
:101b0000090032008d8272008482720061026000de
:101b10008301d1000281d3008180d3000080d300f3
:101b20000603e8001b0037000348a30017003a0033
:101b30000600e000170034000603e9000d00a300d2
:101b4000000048008180480002014900838149006b
:101b50000348a3000f003a000600e000090034002b
:101b60000603e900000040008180480002014900ae
:101b70008381490001003a000003eb000348a30001
:101b8000f5ff32006022b800020037008482720044
:101b900061826600e900070003f0a1000cf0a700d5
:101ba00003f0a000e0003700640147006408e10092
:101bb00002003a000df8a300d8003a003200be003f
:101bc0001201be00d80037001400fa00889fbe0042
:101bd0008a9fbe008c9fbe000004be000205be00ae
:101be000680047000a90be000890be002801070068
:101bf0000070a7000bf0a1000bf8a30020003a0032
:101c00009e0990000e099000fe0090006e0090006a
:101c10009e0290003443200084825200c2003200b1
:101c20000a003c00b4fc2f000428e100140034003a
:101c30008301d1000281d3008180d3000080d300d2
:101c40008502e800faff3a00b7003700b400200030
:101c50000428e10007003c000000400081804800ab
:101c600002014900838149008502e900faff3a0038
:101c7000ad003700030028000200200001003700fb
:101c80006011b8006000b800a70037002800fa0013
:101c9000889fbe008a9fbe008c9fbe0003866b009b
:101ca0008d0007006400e100440032006408e10098
:101cb0004a0032006100e100460032006108e100a4
:101cc00049003200ec0647006000b8003d02be004b
:101cd0003d03be00f48657006011b8003d04be000d
:101ce0003d05be007d0320000b0037000000a00072
:101cf0008d06e900130032000402420085824a008a
:101d000006034b0087834b000000400081804800a1
:101d100002014900838149000802520089825a0069
:101d20000a035b008b835b00f0ff3b00080242006c
:101d300089824a000a034b008b834b008d06e90021
:101d4000edff3a008482720086827200f707b200cb
:101d50008782720001003200150020001e049000ee
:101d60003e0b900006035400e63fb0000368a3005a
:101d7000070032000000a7000500a0008301d10089
:101d80000281d3008180d3000080d3000603e800e5
:101d90008301d1000281d3008180d3000080d30071
:101da0000002eb000482d2006400070003f0a100ef
:101db0000cf0a70003f0a0005b00370064024700ae
:101dc0006408e100550032003400be003401be005a
:101dd000f6ff37006108e100500032006011b800e2
:101de0006000b800f1ff370003ff27000200200069
:101df000fbff3700889fbe00830478000300e000eb
:101e00002c00350003003c000082700004027100c9
:101e10002600320036432000c50020008383cf0017
:101e20000a0039000541b1008283cf000700390064
:101e30000541b1008183cf00040039000541b100a4
:101e40008083cf00010039000541b10085c35300f4
:101e50006022b800120032000a003b008482720047
:101e6000610260008301d1000281d3008180d30030
:101e70000080d3000603e8008743e800f7ff3a003c
:101e8000070037000000400081804800020149003f
:101e9000838149000603e9008743e900f9ff3a001e
:101ea0002600070009f0a70003f0a0004f04be00c1
:101eb0000000060060001000e080180060011900ba
:101ec000e0811900d3ff3b00033e2c00f7ff3700f1
:101ed00007f0a200bffe3700680447000294be006e
:101ee0000094be00fc0447008694be008494be00ab
:101ef0000900780066000700080078006400070009
:101f000099007800814f70000b003b000800be0074
:101f1000930007004f00b10003003700f3ff2700d4
:101f2000f2ff2f006110b9004f06be004f05be0042
:101f30004f04be000080fa000000060018002000d8
:101f400057002000080453000d003d00060020004b
:101f500097fc2f000740e1001e00340084827200cd
:101f6000610260008301d1000281d3008180d3002f
:101f70000080d3000804e800f8ff3a004700200082
:101f80006104600005047400040464000d00320064
:101f900061004000e080480060014900e0814900a4
:101fa00003b8a500070032000603e8006538e10029
:101fb00004003a008301d1000281d3008180d30064
:101fc0000080d300f87f20000830e10003003500d6
:101fd000080378006000b8006011b8004433dd00e9
:101fe000f300b2008301730000000600889fbe006a
:101ff0008a9fbe008c9fbe000404be000605be0082
:10200000809fbe00829fbe00630007000406780028
:102010000800be000a01be005f00070084067800c9
:102020004f03be004f02be008d4f76007fb0970079
:1020300013003300f0ff2f008b8f6b0006003b0076
:102040000d0666000c00a7000a00370007f0a60086
:10205000100020000a003700880f5200898f5a00b4
:102060008a0f5b008b8f5b0003003900100020009b
:1020700001003e000000200007f0a7000000ea0079
:102080004f06be004f05be004f04be000000060014
:10209000800078005002be005003be004439de00cc
:1020a000f700b200f37f2000030161000900320055
:1020b0000218e10016003a008501720083017300e6
:1020c000838173000008200015003a0040002000c2
:1020d0001300370085017200830173008381730050
:1020e00005003a0004a8be0006a8be0010002000ab
:1020f0000b0037000201e9000402420085824a0019
:1021000006034b0087834b000748a300f9ff32000a
:102110000740a00004a8be0006a8be0020002000c2
:102120008000980092009800000006000003be00a6
:1021300018fb07006220e100020032000600be002a
:1021400005000500e507b100f107b20004f0230027
:102150008480700007f0a70001f0a00024000500b3
:10216000e48240001078a3000700320064024000bf
:102170001178a3003400be001401be000400320038
:102180000330a700000006003500be001501be00a8
:102190000330a0000000060005ff27000582610053
:1021a000070032000428e10001003200240005008d
:1021b0000600070001003a0044000500040805007d
:1021c00002000700f9ff3a00140005006f82610069
:1021d0008102700085027100850272000000060015
:1021e000800078003004e000feff3a00010050005b
:1021f0000000e900000006000001780000c2b30002
:10220000010037000201e8009240780080cf5000c2
:10221000fcff3200e9cf5000faff3200d0c2b30019
:1022200080cf500003003a000201e80014c0b30060
:10223000050037000042eb00b0c2b30080cf500071
:1022400001003a000201e8008000eb0005fd2f00cc
:10225000040037006a08b900008041008500400092
:102260000201e8009201fb0005804100e90f5000e7
:10227000f8ff36000404e000010032008100ea00ab
:1022800001007800000006000c00fa00889fbe00e4
:1022900000047800cfb09700f0ff2700d0bf9f0068
:1022a0008004eb0099bf9f0088bf9f00a8bf9f00dc
:1022b000200c2000b0bf9f0078815700708057002d
:1022c000480107000fb89700094878000fb8970039
:1022d00008045000080078004f04be000080fa0097
:1022e00000000600889fbe008a9fbe008c9fbe0033
:1022f00000017800214121001100e0000b003a00ac
:102300006041210090a0880070a08800b1a08800e2
:1023100081a08800214090000004a000a040980007
:10232000614090000004a000e0409800e7004100f8
:10233000c208de00c20cdd0084a080000d43210035
:10234000006321000d05500022002000811f78004d
:10235000110009000205d80000067800cf007800bf
:10236000c308dd00e48540008001eb000643210046
:10237000254121000100370001027800244090002f
:102380000008a300020032000a003700110a78009a
:1023900094007800214090000008a300fbff320069
:1023a00009014200828f500002003900840f510061
:1023b0004600310094007800848f5000eeff3e000c
:1023c000868f500002003900858f5000eaff3900e7
:1023d00070a08000800f52004f003a00858f50009f
:1023e0004d003a008301e800e18f5100e2ff360022
:1023f0008c8f5400040036008a8f54000200310094
:102400000b04780012003700614ab8006151b9002e
:10241000b0ff2f0001002000020050008380580010
:10242000800f5200818f5a000200350009047800a5
:10243000070037000d805400326321000200400085
:10244000110009000a80d8000a80b9000004780051
:1024500008007800c6f7070080017800e10f40000f
:102460002d00320070a080000308780072a0800068
:1024700064004100a2409000808f510002003200b1
:102480000104a000010037000104a10021419800cf
:1024900008804100640050008009780070a0880026
:1024a000224121000208780071a0800021409000a4
:1024b0000004a000a0409800234090000004a10068
:1024c000a041980002027800a7ff370082a0880090
:1024d000828f50000900360092007800c040210031
:1024e000a24190000348780051a0880014097800a8
:1024f0008040eb0080a080002140980080a08000f8
:10250000000a7800244090000004a00020429800b7
:1025100064004200010037000000eb004f06be00df
:102520004f05be004f04be000000060064005000ce
:1025300080a08800a04090000104a10021409800e4
:1025400000000600889fbe008a9fbe00000578003c
:10255000e401500013001000c285de00234090000b
:102560000008a3000400320083a0880023409000ec
:102570000004a100a04198000100780059ff070065
:10258000000478000000e000170032008a0f5000bd
:102590001500320060b8970008005000c284de00c9
:1025a000898f550001003600890578004259dd0009
:1025b0008a00780008007800880507008a0f540018
:1025c000090031004248dd00000044008a0f50003d
:1025d000050036000a0050000000440052a08000b0
:1025e00063a080000288be00080078004f05be008e
:1025f0004f04be0000000600000478007e050700be
:102600000800780070f7070001002000e0a08800b3
:10261000f1a0880011c0b300a0412100014878005a
:1026200000000600a24121001204e00006003a006a
:102630001000200001002000e0a08800f1a0880028
:1026400010c0b30000497800d2e62400631c2400c7
:10265000e0a08000f1a08000bbf707000001be00f1
:102660009003230001002000020040008380480006
:10267000e0a08800f1a088004088de00cf80de0066
:1026800000f0a10000000600889fbe008a1f7800ad
:10269000804078000004e00021003d008040ea0016
:1026a000d0c6b30080cf5000090034008104fb0085
:1026b00042062000110009008204d80000017800c1
:1026c000010078004311dd00aa1b21001f00370024
:1026d0000100fb00a31b210039003700a2002000ed
:1026e000110009000200d800000178000100780004
:1026f0004311dd00030141004300dd000300400001
:102700003002be002003be0042209000d220900084
:10271000f221900062219000ddfb07002e003700bf
:10272000d0c6b30080cf5000230034008104fb00ea
:1027300042062000110009008204d8000001780040
:10274000010078004311dd00aa2621000a014100a2
:10275000a8002000110009000800d8004300dd0097
:102760000a00400040229000d02290006023900098
:10277000f02390000288900092889000b289900027
:1027800022899000c2fb0700801f780001027800b8
:10279000110009008804d8000102fd004f007800f4
:1027a0000402fb004322dd000a0242005403be0083
:1027b0004402be00d8ff37000100fb00a326210021
:1027c000eacf5000c5ff3c004300dd00030040009d
:1027d0005001be004000be004f0578004f04be000f
:1027e000000006008f03b000889fbe008a9fbe00d5
:1027f0008c9fbe008e1f7800e0b79f00f1b79f004e
:1028000082bf9f000000eb00a0b79f00e6043700e6
:102810008001eb0050c2b30080cf500009003200ad
:102820000100fb00efb0970001050700e10f400039
:10283000dd043200afb097008100e800a1b79f002f
:10284000d90437007fb1970092407800d0c2b3001e
:1028500080cf50000c00320007003c006d4050005b
:1028600080cf50000d0032006b40400080cf500000
:1028700019003a000e00370000c3b30080cf5000ab
:1028800015003a000f0037000330a0007fb2970018
:102890000402e800f4b79f00eaff37000300a0003d
:1028a000ffb297008502e800f5b79f00e5ff37000b
:1028b0000310a0007fb697000c06e800fcb79f004d
:1028c000e0ff37000320a0007fb097000000e80081
:1028d000f0b79f00dbff37000318a30001003200b0
:1028e0000300a1000338a300010032000320a1006f
:1028f0000100fb0002fd2f0002004000e90f500024
:1029000010003e008000eb00c1b79f00020278007b
:102910004fb197006a10b900ffb297001501fb0094
:102920000001410004014100c2b79f005500fb00b7
:10293000f5b79f0004004000e90f50000d003e0075
:10294000f3ff37000006eb00ccb79f00a0c2b30036
:1029500080cf500007003a000fb89700c000780001
:1029600080bf9f00c1b79f007fb197000201e800c0
:10297000f2b79f00e0c2b3007fb29700944f1000ff
:1029800021003a00830678000de0a0008400e800f2
:1029900064405000914f100004003200f1b79f00d6
:1029a0008002eb00b5b79f00100037000fbe970004
:1029b0004c0078008cbf9f00b0b79f00ffb097001d
:1029c0008180e800f1b79f00130037003fb2970005
:1029d0006a20b9000000410003004000b0b79f002a
:1029e000ffb297008502e800f5b79f007fb6970019
:1029f0001c01fb0003fd2f0003004100e90f500004
:102a0000f2ff360004003700830678000dc0a000f6
:102a10000000eb00b0b79f007fb19700b240780094
:102a2000f2b79f00c17f9f00c0c6b30080cf5000a7
:102a30002700320014003c006840500080cf500056
:102a40009d00320009003c006c40500080cf5000d7
:102a5000290032006b40400080cf500072003200ed
:102a60000104e000560432008e00370060c6b30057
:102a700080cf50001c0032006340400080cf5000e7
:102a800088003a008c00370030c7b30080cf500078
:102a90001c00320007003c006440500080cf500012
:102aa000130032000040e80080cf50007d003a0063
:102ab0001100370050c7b30080cf50007d003200b6
:102ac0006340400080cf500076003a000b00370092
:102ad000000028000d48a30001003a00000120007a
:102ae00080867600ccff37000da0a0007200370072
:102af0000d60a000700037000d50a0000d70a00008
:102b00006d0037008fb997004300780083bf9f00a6
:102b1000000478000000e00001003a00a83b21001a
:102b20008004eb00010037008104e8008900780090
:102b3000088044001004e000fbff3a003fb2970019
:102b40000400e00003003200890f52000100310050
:102b5000840478000007eb00cfb29700898f520001
:102b600001003600098752004368de00e10660007c
:102b700019003a000d06780009003700efb0970001
:102b8000000220002a040700e10f40000300320089
:102b90002fb097000000e800a0b79f000c06e800e7
:102ba0008e0f5600f5ff3a000087eb000a00370051
:102bb000880078003100fb0001047800efb0970036
:102bc0001b040700e10f400003003200afb0970084
:102bd0008100e800a1b79f000900e90080047800a7
:102be000e10f4000f2ff3a000006eb000d00e000ac
:102bf0000a003a00ec033700efb097000002200013
:102c00000b040700e10f4000030032002fb19700d2
:102c10000201e800a2b79f000c06e8008e0f5600e4
:102c2000f5ff3a00e00337008fb9970043007800c2
:102c300083bf9f00cf80de00010178008201780011
:102c40000205be000004be000203be000002be007a
:102c50004822de00482edd0004027600c47f9f007b
:102c60000d48a3000a0032000404e000080032000e
:102c7000e14f420006003200d1fb2f0001804700e7
:102c8000044878001840980029002000020037000e
:102c9000d07f9f0019002000d2fb2f000284470044
:102ca000a6ff3700c3fb2f00038447001900200054
:102cb000a2ff37000d0cb3000070200000826600f8
:102cc000270232000dc8a300020032006400200079
:102cd000b4b79f000d48a300050032000fba97005b
:102ce0004401be004400be0084bf9f0004003700c2
:102cf0008fba97004500be0085bf9f00d9fa070034
:102d0000e0af9f00f1af9f0082b79f0093b79f0095
:102d10006022b8006033b8006fa89700ffa8970042
:102d20000fb197009fb19700edfa07000000e00097
:102d30000a003d006fa89700ffa897000fb1970009
:102d40009fb1970003f0a200e0af9f00f1af9f009a
:102d500082b79f0093b79f003d00b3000000eb00d7
:102d600080a79f006022b8006033b8006fa897006a
:102d7000ffa897000fb197009fb19700ddfa0700f9
:102d80000000e000340032006fa89700ffa8970011
:102d90000fb197009fb19700dbfa070003fc2f00eb
:102da0000381470003fb07000fa097000000e90024
:102db0006300b900a2002000110009000200d80041
:102dc0008000fd0081a79f000100e00002003d009f
:102dd0000100e90080a79f000fa497000840ea00c7
:102de00029fe07006faa9700ffaa97000fb397006c
:102df0009fb3970026fa0700a0af9f00b1af9f00d6
:102e0000c2af9f00d3af9f006022b8000600200031
:102e100007ff2300b2fa07000000e00002003d00b7
:102e20000800e9000b0037006022b800060020000f
:102e3000470224002fa89700bfa897004fa997002a
:102e4000dfa99700defa07000000e000020035006d
:102e50000800e80080a79f003fb29700f80f5200db
:102e600057003c00d0c6b300804f52002900360006
:102e70000485fb0042062000110009000285d800ed
:102e800000017800010478004311dd00ab1b210034
:102e90000b0141006022b8000600200007fe23005d
:102ea0000288900092889000b28990002289900058
:102eb000f7f90700a9002000809fbe00110009005b
:102ec0000984d800000478004f00be004344dd00b0
:102ed0000b04440048229000d82290006823900000
:102ee000f8239000eaf90700801f780001027800bb
:102ef000110009000985d8000102fd004f0078008b
:102f00004322dd000b0242005403be004402be0017
:102f10001f0037000480fb00a91b2100ea4f52006c
:102f200014003600a2002000110009000280d80021
:102f300000017800010478004311dd00090141001f
:102f40006022b8000600200007fe23004220900007
:102f5000d2209000f221900062219000ccf907006d
:102f60004344dd00090444003802be002803be00cb
:102f7000070037004300dd00090040006022b80070
:102f80000600200007fe23005001be004000be00e6
:102f9000bff907000002be000203be006fa8970041
:102fa000ffa897000fb197009fb1970089fa07001b
:102fb000e0af9f00f1af9f0082b79f0093b79f00e3
:102fc0000fa49700e90f540015003c006022b800e0
:102fd0006033b8006fa89700ffa897000fb1970063
:102fe0009fb1970043fa07000000e0003200320072
:102ff0006fa89700ffa897000fb197009fb19700a7
:10300000f1fa0700e00f5000e08f5800e00f590080
:10301000e08f590028003a00e10f540026003400e8
:103020000400200005002e00b6e022001701240055
:103030002fa89700bfa897004fa99700dfa9970076
:1030400027fa07000000e00002003d007300540072
:10305000010037007200540080a79f000fc0970046
:1030600089fd0700a0af9f00b1af9f00c2af9f00d6
:10307000d3af9f000002be000203be006fa89700fe
:10308000ffa897000fb197009fb19700fffa0700c4
:10309000cdfa07000205be000004be006000b800c3
:1030a0006011b800a0a79f00b1a79f00c2a79f0012
:1030b000d3a79f002e0037006fa89700ffa89700a6
:1030c0000fb197009fb19700bffa07000205be003d
:1030d0000004be00e00f5000e08f5800e00f5900e0
:1030e000e08f59000200350042fb07001300370053
:1030f00010002000010020006011b80008006000ee
:10310000898060000a0161008b8161008b03d1001e
:103110000a83d3008982d3000882d30000007200a2
:1031200081807200020173008381730031fb07000c
:103130000002be000203be0026fa07000002be0025
:103140000203be006fa89700ffa897000fb1970079
:103150009fb197005efb0700a0a79f00b1a79f004b
:10316000c2a79f00d3a79f000000eb0080a79f008d
:1031700014c0b300a53121000b0037000400fb0090
:103180004300dd00050040005001be004000be00cd
:103190000040e10001c8e10002d0e10003d8e100f5
:1031a000030039000442e800f44f5200f3ff3a00f4
:1031b000c47f9f000400fb00bfb097000080400068
:1031c0008fa09700010040004fb197000007510009
:1031d000bfb197000300e000010032000e07e900d4
:1031e00063806600010032000e07e9000d28a3008d
:1031f00026003200e18066000d18a3000c003200aa
:10320000d00220000100e00001003a000080e90047
:10321000efb0970086020700e10f4000180032006f
:103220002fb297000402e800a4b79f0014003700f3
:103230000100e00012003200efb097000002200011
:103240007b020700e10f40000d003200afb2970093
:103250008502e800a5b79f0009003700efb097008e
:103260000003200072020700e10f4000030032005b
:103270002fb697000c06e800acb79f000e07e900d8
:103280000e00e000f5ff3c003d0037000d38a300c4
:103290000a0032000b003700efb097000002200058
:1032a00063020700e10f4000030032002fb09700d7
:1032b0000000e800a0b79f000e07e9000e00e00044
:1032c000f5ff3c00e18066000d18a3000c00320001
:1032d000d00220000100e00001003a000080e90077
:1032e000efb0970052020700e10f400024003200c7
:1032f000afb097008100e800a1b79f002000370021
:103300000100e0001e003200efb097000002200034
:1033100047020700e10f4000190032002fb197006b
:103320000201e800a2b79f00150037000000fb0073
:103330004300dd00a1312100010040003002be0049
:103340002003be000800be000a01be003ff80700cf
:10335000a4002000050020006033b80042f80700f8
:103360000003b000efb0970031020700e10f40000a
:1033700003003200afb197008301e800a3b79f00bc
:103380004f7a97000440e900c07f9f00e14f400062
:10339000e6ff3a000b003700efb097000003200073
:1033a00023020700e10f400003003200afb2970094
:1033b0008502e800a5b79f000fa097000000e90074
:1033c00080a79f000fa097000000e000f2ff3c00e4
:1033d0003fb6970020c1b300f20f560001003c0039
:1033e0006fe09700c07f9f00cf7897000100fb003f
:1033f0003fb1970000005100e0a79f000104e000ea
:1034000008003200efb09700e00220000802070039
:10341000e10f400003003200afb197008301e800e4
:10342000a3b79f004f78970097fc07000002be00eb
:103430000203be002fa09700bfa097004fa19700e6
:10344000dfa1970092f80700dff907001e003700a0
:103450000000fb004300dd00ac3121000c00400007
:103460003002be002003be000800be000a01be00fc
:10347000f6f70700a4002000050020006033b80024
:10348000f9f707000003b000efb09700e80107006c
:10349000e10f4000030032002fb297000402e80061
:1034a000a4b79f00cf7a97000500fb004300dd0022
:1034b0000c0040003002be002003be000800be0029
:1034c0000a01be00e8f707000205be000004be00c6
:1034d0004f7e97000c40e900c07f9f00e14f400005
:1034e000dbff3a000006eb0009003700efb0970061
:1034f00000032000ce010700e10f4000030032006e
:103500002fb097000000e800a0b79f000c06e8006d
:10351000efa09700810f5600f4ff3a000d38a3008a
:10352000a10132000e00e0009f0134000006eb0014
:10353000efb0970000022000bd010700e10f40003e
:10354000030032002fb197000201e800a2b79f00ec
:103550000c06e8008e0f560093013200f4ff37008e
:103560000d007800000cb20028003a000d00e000c9
:1035700005003d008fb997004305be004304be001f
:1035800083bf9f00140037000d48a3000b003200da
:103590000fba97004400be0084bf9f004f89de0031
:1035a000cf91de000002be000203780082037800a3
:1035b0000605be000404be00070037008fba97005e
:1035c0004500780085bf9f0000047800cfc4de006e
:1035d000090578008a057800e00f5400e08f5c0050
:1035e000e00f5d00e08f5d0020003d003d00b30076
:1035f0006000b8006011b8000804500089845800c9
:103600000a0559008b855900180037000d00e000ad
:1036100005003d000fbe97004c05be004c04be00e7
:103620008cbf9f00110037000d48a3000800320036
:103630008fba97004500be0085bf9f000401780047
:10364000840178000205be000004be0007003700b8
:103650000fbe97004c0078008cbf9f0000047800dc
:10366000090020000a0020000b0020003fb0970056
:103670000000e00007003a00e00f5400e08f5c001b
:10368000e00f5d00e08f5d0002003a0011002000b5
:10369000b1b79f000d0778000e0cb20000042000a7
:1036a000800f57002f00320003003c000e00e000a6
:1036b000070032003f00370000082000800f57004d
:1036c00014003200000c2000800f570039003a002f
:1036d00014c0b300a53121000b0037000400fb002b
:1036e0004300dd00050040005001be004000be0068
:1036f0000040e10001c8e10002d0e10003d8e10090
:103700002b0039000442e800f44f5200f3ff3a0066
:103710002700370000012000010020006011b800e0
:1037200014c0b3000040e10001c8e10002d0e10094
:1037300003d8e1001e003900450020000000d00041
:103740008180d2000281d2008381d2008502e9000b
:10375000faff3a000442e800f04f5200f1ff3a004d
:103760001300370080002000010020006011b80025
:1037700014c0b3000040e10001c8e10002d0e10044
:1037800003d8e1000a0039003c0020000000d0000e
:103790008180d2000281d2008381d2000c06e90030
:1037a000faff3a000442e800f54f5200f1ff3a00f8
:1037b000c47f9f00cf7897000100fb003fb19700c6
:1037c000820f500002003d00c27f9f0004003700be
:1037d000bfb19700808f510001003d00b0b79f003e
:1037e0004fb297000400e0000400320063806600de
:1037f000020032000402e900c4b79f000de8a300f4
:103800000b003200cfb297003fb697008c8f52006a
:1038100003003c000000eb00c0b79f00040037002d
:10382000cfb097003fb1970082805000c1b79f0092
:10383000cf7997000300fb000002eb0094a79f00e4
:10384000cfb29700808f52000200340000805200f7
:1038500090a79f000d28a30037003200e18066008a
:103860000d18a3000c003200d00220000100e0007f
:1038700001003a000080e900efb09700ec0007007b
:10388000e10f40000e0032002fb697000c06e80052
:10389000acb79f000a0037000100e00008003200ca
:1038a000efb0970000022000e1000700e10f4000a8
:1038b000030032002fb097000000e800a0b79f007f
:1038c0009fa097000100e0000f0032000006eb000f
:1038d000efb0970000032000d5000700e10f400083
:1038e000030032002fb197000201e800a2b79f0049
:1038f0000c06e8009fa19700830f5600f4ff3a00e2
:103900000002eb0094a79f00bfb29700c328dd0020
:10391000203121008080400091af9f004228dd00cf
:103920006400500080af9f006328b900f0a79f009b
:1039300063065000820037001fa697000c00e000cd
:1039400011003200688066000f003a00000678001f
:10395000efb0970000022000b5000700e10f400023
:10396000030032002fb097000000e800a0b79f00ce
:103970000c06e8009fa09700810f5600f4ff3a0064
:103980000001eb0092a79f00e18066000d18a300e4
:103990000c003200d00220000100e00001003a00db
:1039a0000080e900efb09700a1000700e10f4000a0
:1039b000d5ff3200afb197008301e800a3b79f00a5
:1039c000d1ff37000100e000cfff3200efb09700d9
:1039d0000002200096000700e10f4000caff3200fd
:1039e0002fb297000402e800a4b79f00c6ff37007b
:1039f00000042000800f57003000320003003c001c
:103a00000e00e000070032003d00370000082000f3
:103a1000800f570011003200000c2000800f57006b
:103a200037003a001fa897003002be002003be00f6
:103a30000800be000a01be0084f60700a4002000b2
:103a4000050020006033b80087f6070004c3b30008
:103a500004424000c47f9f0029003700153c21002c
:103a6000d5b79f000d58a30002003a00203d210069
:103a7000d0b79f0014002000050020006033b8007c
:103a80008fa897008100e900050033000402d000f0
:103a90008582d2000683d2008783d200f9ff3700e7
:103aa0000800be000a01be0068f607006f00600053
:103ab0005fb19700624078001000370014002000ca
:103ac000050020006033b8008c0178008301e90014
:103ad000050033000402d0008582d2000683d200a4
:103ae0008783d200f9ff37000800be000a01be003c
:103af00056f60700674060000043b000c07f9f009b
:103b00004f7a97000400fb00efb0970048000700d1
:103b1000e10f400003003200afb297008502e800d9
:103b2000a5b79f001fa897006800500090af9f00a6
:103b30008fa89700e480500081af9f006306560075
:103b4000d0ff2f003fb197000090b900ffa1970070
:103b50000080410063005000800f5600a4ff3a002f
:103b60000d38a300100032001fa297000400e000ef
:103b70000d0034000006eb00efb0970000022000bb
:103b80002b000700e10f400003003200afb29700a6
:103b90008502e800a5b79f000c06e8001fa097006b
:103ba000800f5600f4ff3a007fb19700b2407800d2
:103bb000f2b79f00c17f9f000104e00014fb3a00b0
:103bc0002fb097004f0778004f06be004f05be008c
:103bd0004f04be008f03b100000006008001eb001f
:103be0000200370061f079008301e800828f510004
:103bf000fcff3a0000000600881f780030a180001a
:103c00000000e0000100320000000100683e2100d9
:103c1000080078004d0007006c044400a04021001b
:103c2000800f5400faff3a004f04780000000600ad
:103c3000889fbe000001780001047800b100900068
:103c40000118a3003d0032000198a30003003a00d0
:103c5000180090000000e00038003a000190a00039
:103c60003104980082047800f90fb2001800900027
:103c70000000e00002003a0028009000000c7800ec
:103c8000ea8f540006003a00380090000078a30044
:103c900003003a0088007800d0002000e4ff07000d
:103ca0009800900058009000808f50000b00320068
:103cb0000100e80010049800180078000958780006
:103cc000000c780011c0b300404221000148780088
:103cd000ea8f54000600320019003700880078008f
:103ce0000940780051000700800478001400370074
:103cf000380090000088a3001100320018019000e5
:103d0000a800900048009000b7f1070098009000cc
:103d1000810f500004003200380090000003b3000f
:103d2000300498008084eb000000eb001004980041
:103d300028009000000c7800010037008084eb0020
:103d4000090078004f04be0000000600889fbe00f6
:103d50008a1f780000047800300090006300600043
:103d60002400320008007800730007003805900036
:103d700080ef2f00000065003004980028009000bc
:103d80000000e00004003200e804650002003a0090
:103d9000a20007002904980048009000c9f107001c
:103da000e10f400013003200b80090000102b200a1
:103db00010003a000ac8a3001800320050a1800089
:103dc0000000e00015003200000178008104780056
:103dd000012a200012289000880f500007003200ae
:103de0004205b0004905b000818f54000b0032003d
:103df000f8ff37000080eb00090037000200780070
:103e0000b9f1070050a18000090040008000eb00dc
:103e10001128980001007800010037000000eb0035
:103e20004f0578004f04be00000006000200fa00b3
:103e3000889fbe00a0ff9f0001047800b1009000a1
:103e4000810478000904b200020032000000fb0087
:103e5000360037000118a30005003a000103b30043
:103e600031049800190498000080eb002f003700ff
:103e7000580090000000e00006003a004800900062
:103e800012002000e680570057f10700190498003f
:103e900024003700280090000000e00008003a00ed
:103ea0000042210020049800000c7800200020002f
:103eb00050049800100498000130a00031049800cc
:103ec00018019000a80090004800900046f10700fb
:103ed00028009000000c78000080eb00100498008f
:103ee00018007800aff8970001587800000c7800af
:103ef0002ff89700ea4f50000a003a00380090006f
:103f00000088a3000700320018019000a80090006c
:103f10004800900034f1070019049800a8009000b0
:103f2000010c7800aff897000100fb004f04be00c1
:103f30000080fa0000000600881f78000004780066
:103f4000300090000008a3000700320080007800d5
:103f50000120b20004003a0011049800a80090006b
:103f6000010c7800170037000018a3001900320078
:103f70000098a30017003200a80090000100e000a4
:103f800014003200180190000200e000110032001d
:103f90004800900014f1070098009000810f500035
:103fa00003003200380090000003b3003004980092
:103fb0000000eb001004980028009000000c78002e
:103fc000380090000058a300020032000080eb008f
:103fd000010037000000eb004f04780000000600ed
:103fe00041a180000100e0000300320011007800d0
:103ff00040a188000300370020002000dcf007000b
:1040000080007800e18f400002003a00906e2600a8
:10401000c08d8800010078000000060041a18000ea
:0c4020000108780040a1880000000600a4
:020000040000fa
:0200000401f009
:04000000e6bf000057
:020000040000fa
:0200000401f009
:04000400ff7f00007a
:020000040000fa
:0200000401f009
:040008007fff000076
:020000040000fa
:0200000401f009
:04001400ffff0000ea
:020000040000fa
:10000800527f0000527f0000527f0000527f0000a4
:10001800527f0000527f0000527f0000527f000094
:10002800527f0000527f0000527f0000767300006c
:10003800527f0000527f000020770000da7700002e
:10004800527f0000467e0000867d0000527f00003f
:10005800527f0000527f00003e620000527f000085
:10006800527f0000527f0000527f0000527f000044
:10007800527f0000be7e000018790000527f000009
:10008800827e0000e67d0000527f0000527f000063
:10009800527f0000527f0000527f0000527f000014
:1000a800527f0000527f0000527f0000527f000004
:1000b800527f0000527f0000527f0000527f0000f4
:1000c800527f0000527f0000527f0000527f0000e4
:1000d800527f0000527f0000527f0000527f0000d4
:1000e800527f0000527f0000527f0000527f0000c4
:0800f800527f0000527f00005e
:020000040000fa
:10010800527f0000527f0000527f0000527f0000a3
:10011800527f0000527f0000527f0000527f000093
:10012800527f0000527f0000527f0000767300006b
:10013800527f0000527f000020770000da7700002d
:10014800527f0000467e0000867d0000527f00003e
:10015800527f0000527f00003e620000527f000084
:10016800527f0000527f0000527f0000527f000043
:10017800527f0000be7e000018790000527f000008
:10018800827e0000e67d0000527f0000527f000062
:10019800527f0000527f0000527f0000527f000013
:1001a800527f0000527f0000527f0000527f000003
:1001b800527f0000527f0000527f0000527f0000f3
:1001c800527f0000527f0000527f0000527f0000e3
:1001d800527f0000527f0000527f0000527f0000d3
:1001e800527f0000527f0000527f0000527f0000c3
:0801f800527f0000527f00005d
:020000040000fa
:10402c0072650000643a000020250000643b00002b
:10403c002067000072650000656e00003a200000e9
:10404c00256400003b200000626c000075650000d8
:10405c003a200000256400000d0a00000052000008
:10406c006f6200006f7400003a250000692c00009c
:10407c0020520000616e0000676500003a250000c8
:10408c00692c00002042000065610000726900008c
:10409c006e6700003a250000662c000020540000da
:1040ac00696d0000653a0000256600000d0a0000ed
:1040bc0000730000656e0000736f0000723a000020
:1040cc0020250000752c000020720000616e00009d
:1040dc00676500003a200000257500002c200000c8
:1040ec006265000061720000696e0000673a0000b2
:1040fc0020250000662c000020490000443a0000f6
:10410c0020250000750d00000a000000414e000043
:10411c00474c000045200000414400004a55000077
:10412c00535400004d4500004e5400003a2000004e
:10413c00736500006e7300006f7200002025000094
:10414c00752c000020720000616e00006765000095
:10415c0020250000752c0000206200006561000025
:10416c00726900006e67000020250000660d0000db
:10417c000a000000257300002564000000250000e3
:10418c00730d00000a0000004f4200005354000061
:10419c00414300004c4500003a20000073650000cc
:1041ac006e7300006f72000020250000752c00005b
:1041bc0020720000616e0000676500002025000081
:1041cc00752c00002062000065610000726900001f
:1041dc006e67000020250000660d00000a0000003c
:1041ec00256c000064000000256c000066000000d7
:0c41fc00256900000d0a00000000000012
:020000040000fa
:104208001800fa000000eb002007980000ba200010
:104218005b030700300798000000eb0010079800c8
:10422800be0037001e0090007d00b900e600400087
:1042380000ba200000804000104078008040eb0069
:10424800715798000004e00002003a0012c0b30061
:10425800725798001e0090007d00b900e7004000ea
:1042680000ba200000804000104078008040eb0039
:10427800615798000004e00002003a0012c0b30041
:1042880062579800fe5090006e51900002c0600086
:104298000080fb00200f98001e0090007d00b900f0
:1042a800e800400000ba200000804000104078007c
:1042b8008000eb00110f98000004e00002003a00b3
:1042c80012002000120f98002e0890009e089000ff
:1042d80001006000000f98001e0090007d00b900ea
:1042e800e500400000ba200000804000104078003f
:1042f8000001eb0072079800e84f500002003a00f6
:1043080010002000700798008e0890007e01900031
:10431800028060000000e0007d0032001e00900076
:104328007d00b9008000780000ba200000804000bd
:10433800a60307001e0090007d00b900e8004000b9
:1043480010ba200000804000904078000040eb0048
:10435800504f980050c6b30080cf500002003a007a
:1043680011c0b300514f98001e0090007d00b900a5
:10437800e900400010ba200000804000904078001a
:104388000041eb00424f9800d0c2b30080cf5000ec
:1043980002003a0010c0b300404f9800de48900079
:1043a8004e49900002c060000080fb005007980052
:1043b8001e0090007d00b900ea00400010ba2000fd
:1043c80000804000904078000000eb004007980013
:1043d80000c7b30080cf500002003a00110020004f
:1043e800410798005e019000ce0090000100610036
:1043f8000000e000460032000000eb00000f7800eb
:1044080021003700ae0190001e0278001e009000c7
:104418001e0178007d00b9008200400000ba20002b
:1044280000804000104178006b18b90084004000fb
:1044380020cc20000080400002487800ae019000a7
:104448001e0278001e0090009e00780067814000e0
:104458007d00b90002004000e800400010ba2000ca
:104468000080400010407800004178006b18b900c7
:1044780004004000e600400020cc200000804000fe
:10448800024878001e0fe800320020009e0f11003d
:10449800dcff34002e0090006b00b900ea004000f9
:1044a80020cc2000808040000040eb00804878004d
:1044b80040002000000f78000f003700ae01900088
:1044c8001e0278001e0090001e0178007d00b900d1
:1044d8008200400000ba20000080400010417800af
:1044e8006b18b9008400400020cc200000804000f8
:1044f800024878001e0fe800500020009e0f1000b0
:10450800eeff34002e0090000000e800200798001d
:104518001e0090000000e800100798009e00900020
:104528003e009000808f50003eff35002e00900026
:104538000080fa00000006000600fa0000d3200000
:10454800050107002eff0700100798001e009000c5
:104558000000e0000a00320080cc2000ad01070016
:1045680020cc20008f030700004f780000d32000e4
:10457800a80107001e00fb00200798000200370072
:1045880030062000200798002e0090000080fa00d6
:10459800000006002e00fa00e400470020c0b30027
:1045a80080487800e400470020c5b3009040980098
:1045b800e400470060c2b300a0409800e400470050
:1045c8000040eb00b0409800e40047000040eb00da
:1045d800c0409800e400470080c7b300d04098006e
:1045e800e400470030c0b300e04098006400470092
:1045f80071002000652d07000000eb0010079800ef
:104608000040eb00004f7800000037001e009000cb
:10461800800078006b00470001004000a92d0700ca
:104628000000e000060032009e0090006b0047008a
:10463800614f78001e0090000000e8001007980005
:1046480030c0b3009e4f1000f0ff3a006b004700e7
:10465800304090000000fb00e60040001e00900083
:10466800808f5000e9ff3c001e019000eb004700de
:104678000040eb0000f178000000eb001007980004
:104688000b0037001e0190001e009000e70040005c
:104698006b004700e1407800900220000e004000c7
:1046a800017178001e0090000000e80010079800d3
:1046b8006b004700604090008000fb001e009000e7
:1046c800808f5000efff3c001e01900091022000f7
:1046d8008e8040000040eb0000f17800900220003e
:1046e8000e004000c2f607000080fa000000060035
:1046f8001600fa00e400470020c0b30080487800a4
:10470800e400470020c5b30090409800e40047004b
:10471800a0c1b300a0409800e40047000040eb00af
:10472800b0409800e40047000040eb00c04098000b
:10473800e4004700c0c6b300d0409800e40047003a
:1047480030c0b300e04098006400470071002000ca
:104758000e2d07000000eb00100798000040eb004a
:10476800004f7800000037001e009000800078009d
:104778006c00470001004000522d07000000e000d7
:10478800070032009e0090006c0047000080400047
:10479800104f78001e0090000000e80010079800f5
:1047a80030c0b3009e4f1000efff3a006c00470086
:1047b800304090000000fb00e60040001e00900022
:1047c800808f5000e8ff3c009e0090006c0047007e
:1047d800808040000040eb00804878006c00470073
:1047e800604090000000fb000080fa000000060016
:1047f8001600fa00e400470020c0b30080487800a3
:10480800e400470020c5b30090409800e40047004a
:1048180010c1b300a0409800e400470010c0b300e6
:10482800b0409800e40047000040eb00c04098000a
:10483800e400470040c6b300d0409800e4004700b9
:1048480010c0b300e0409800e400470030c0b30057
:10485800f04098006400470081002000cb2c07003e
:104868000000eb00100798000040eb00004f7800b4
:10487800000037001e009000800078006c004700a0
:10488800010040000f2d07000000e0000700320083
:104898009e0090006c00470000804000104f780098
:1048a8001e0090000000e8001007980030c0b30018
:1048b8009e4f1000efff3a006c0047003040900018
:1048c8000000fb00e60040001e009000808f5000b2
:1048d800e8ff3c009e0090006c004700808040008c
:1048e8000040eb00804878006c0047006040900072
:1048f8000000fb000080fa00000006000400fa0037
:104908000de2a900de62a900e262a9006000b80019
:10491800008fbe00040037001000200001002000b6
:104928001e0f40005e9748001e00be000aef0700f9
:10493800626626006366240032ef07000000e0008c
:10494800f5ff3500e262a800de62a800252d070009
:104958000080fa00000006002c00fa0050179800aa
:10496800e400470020c0b30080487800e400470016
:1049780020c5b30090409800e400470060c1b30030
:10498800a0409800e40047000040eb00b0409800c9
:10499800e40047000040eb00c0409800e4004700f6
:1049a80080c6b300d0409800e400470030c0b30090
:1049b800e04098006400470071002000732c070055
:1049c8000000eb00100798000040eb00004f780053
:1049d800000037001e009000800078006b00470040
:1049e80001004000b72c07000000e000070032007b
:1049f8009e0090006b00470061407800004f7800ef
:104a08001e0090000000e8001007980030c0b300b6
:104a18009e4f1000efff3a006b00470030409000b7
:104a28000080fb00e60040001e009000808f5000d0
:104a3800e8ff3c001e019000eb0047000040eb003f
:104a480000f178000000eb00100798000c00370018
:104a58001e009000800078005e10900000814000e9
:104a68001e009000e80040006b004700614078009d
:104a7800004978001e0090000000e8001007980028
:104a88006b004700704090008080fb001e00900083
:104a9800808f5000eeff3c001e00900080007800e0
:104aa8005e109000808040000040eb008048780055
:104ab8006b004700604090000000fb000080fa0097
:104ac800000006003600fa00201f9800e4004700a6
:104ad80020c0b30080487800e400470020c5b30038
:104ae80090409800e400470030c0b300a040980010
:104af800e40047000040eb00b0409800e4004700a5
:104b08000040eb00c0409800e400470050c5b300e7
:104b1800d0409800e400470030c0b300e04098005f
:104b28006400470071002000182c07000000eb000b
:104b3800100798000040eb00004f78000000370095
:104b48001e009000800078006b00470001004000c4
:104b58005c2c07000000e000060032009e00900078
:104b68006b004700614f78001e0090000000e800cd
:104b78001007980030c0b3009e4f1000f0ff3a00b5
:104b88006b004700304090000000fb00e60040004a
:104b98001e009000808f5000e9ff3c001e0190002d
:104ba800eb0047000040eb0000f178000000eb004c
:104bb800100798000c0037001e0090008000780055
:104bc8002e189000008140001e009000e800400070
:104bd8006b00470061407800004978001e00900093
:104be8000000e800100798006b0047007040900034
:104bf8008000fb001e009000808f5000eeff3c00fc
:104c08006b004700604090000000fb000080fa0045
:104c1800000006003000fa00701798007e1090001f
:104c28006df50700000f7800e600470020c0b300cc
:104c380080487800e600470020c5b30090409800ff
:104c4800e600470070c1b300a04098001e0078003d
:104c58008040e8006600470031409800e6004700c1
:104c68000040eb00c040980066004700904090006c
:104c7800660047002040900080c040006600470062
:104c88003040900080c040006600470051409800c6
:104c98001e00780080407800660047006140980058
:104ca8000000eb00200798000d0037002e00900050
:104cb800670140002e009000800078007e10900070
:104cc80000804000904078006600470000004100e6
:104cd800014878002e0090000000e80020079800a6
:104ce8002e0090009e0f5000f0ff35001e00780047
:104cf800e7004000660047008080400030c0b300f5
:104d0800804878001e007800e800400066004700f0
:104d18009e2b07000000eb00200798000040eb00e6
:104d280020479800000037002e009000800078008f
:104d3800400220000e00400001004000e12b070067
:104d48000000e00009003200ae00900040022000a0
:104d58000e004000008040009040780021479800f5
:104d68002e0090000000e800200798002e409000d8
:104d7800e34f5000ecff3a00400220000e004000d4
:104d8800304090000000fb00e60040002e0090003c
:104d9800808f5000e4ff3c00ae00900040022000ed
:104da8000e004000808040000040eb008048780002
:104db800400220000e004000604090000000fb0010
:104dc8000080fa00000006003a00fa00401f980030
:104dd8004e18900000f50700000f78001e0fe8003d
:104de800e600470020c0b30080487800e60047008e
:104df80020c5b30090409800e600470040c0b300cb
:104e0800a04098001e0078008040e8006600470037
:104e180031409800e60047000040eb00c040980091
:104e280066004700904090006600470020409000d0
:104e380080c04000660047003040900080c04000bd
:104e480066004700514098001e00780080407800b6
:104e580066004700614098000000eb0020079800ba
:104e68000d0037002e009000670140002e009000d2
:104e7800800078004e189000008040009040780034
:104e88006600470000004100014878002e009000ad
:104e98000000e800200798002e0090009e0f5000a8
:104ea800f0ff35001e007800e7004000660047006c
:104eb8008080400030c0b300804878001e00780031
:104ec800e800400066004700302b07000000eb00b8
:104ed800200798000040eb002047980000003700aa
:104ee8002e00900080007800e00220000e004000b4
:104ef80001004000732b07000000e00009003200a9
:104f0800ae009000e00220000e004000008040004b
:104f180090407800214798002e0090000000e8009b
:104f2800200798002e409000e34f5000ecff3a0015
:104f3800e00220000e004000304090000000fb001e
:104f4800e60040002e009000808f5000e4ff3c00f7
:104f5800ae009000e00220000e004000808040007b
:104f68000040eb0080487800e00220000e0040007e
:104f7800604090000000fb000080fa00000006007e
:104f88004800fa0020279800e800470020c0b30036
:104f980080487800e800470020c5b300904098009a
:104fa800e80047000040eb00a0409800e8004700f8
:104fb80030c0b300b0409800e80047000040eb0064
:104fc800c0409800e800470050c5b300d0409800a2
:104fd800e800470050c0b300e0409800e8004700f0
:104fe800a0c0b300f0409800e80047000040eb0084
:104ff80080489800e800470030c0b3009048980007
:1050080068004700a1002000e02a07000000eb002c
:10501800300798000000eb00100798001e00900071
:10502800200798000040eb00004f78000000eb00dc
:1050380020079800000037002e00900080007800bc
:1050480072004700010040001e2b07000000e0002e
:1050580007003200ae009000720047000080400058
:10506800104f78002e0090000000e80020079800fc
:1050780031c0b3009ecf1000efff3a007200470026
:10508800304090000000fb00e60040002e00900039
:10509800808f5000e8ff3c0072004700904090006d
:1050a80090c6b30080cf50002f003a000000eb00fc
:1050b800200798000f0037003e0090007d00b900df
:1050c800800078002e20900000814000ae01900002
:1050d8002e009000e600400072004700008040006b
:1050e80010407800807179002e0090000000e800e0
:1050f800200798002e009000e50f5000eeff3400c6
:105108000000eb0020079800110037003e009000d7
:105118007d00b900800078002e20900000814000ba
:10512800ae0190002e009000ec0040007200470095
:105138000080400010407800804078006680410080
:10514800017079002e0090000000e8002007980008
:105158002e009000e20f5000ecff34003e0090005b
:105168000000e80030079800720047009040900067
:105178000040eb0060c7980030c4b30080cf5000f7
:105188000200320011c0b30061c7980072004700e6
:105198002040900070c798007ec090000004e00096
:1051a8000200320011c0b30071c798007ec09000a1
:1051b800eec0900000c060000004e0009bff3a00d1
:1051c8003e0090000080fa00000006004600fa0049
:1051d80020279800e400470020c0b30080487800ea
:1051e800e400470020c5b30090409800e400470061
:1051f80020c0b300a0409800e400470060c0b3009e
:10520800b0409800e40047000040eb00c040980020
:10521800e4004700a0c5b300d04098002e209000bd
:105228001040780080407800640047006140980092
:105238002e209000104090008040780064004700c5
:10524800714098002e209000204090008040780007
:1052580064004700014898002e20900030409000dc
:105268008040780064004700114898002e20900084
:105278004040900080407800640047002148980032
:105288002e20900050409000804078006400470035
:1052980031489800e400470030c0b300c048980087
:1052a80064004700d1002000382a07000000eb0006
:1052b800100798000040eb00004f7800000037000e
:1052c8001e00900080007800710047000100400037
:1052d8007c2a07000000e000060032009e009000d3
:1052e80071004700614f78001e0090000000e80040
:1052f8001007980030c0b3009e4f1000f0ff3a002e
:1053080071004700304090000000fb00e6004000bc
:105318001e009000808f5000e9ff3c001e019000a5
:10532800f10047000040eb0000f1780071004700f1
:10533800604090000004e00015003a000000eb0017
:10534800100798000c0037009e0190001e00900086
:10535800ee0040007100470061417800ae209000e7
:105368006880410001004000124098001e00900033
:105378000000e800100798007100470050489000ae
:105388008000fb001e009000808f5000eeff3c0064
:1053980071004700604090000000fb000080fa00a8
:1053a800000006004a00fa0030279800e400470091
:1053b80020c0b30080487800e400470020c5b3004f
:1053c80090409800e4004700a0c0b300a0409800b7
:1053d800e400470080c0b300b0409800e4004700f4
:1053e8000040eb00c0409800e400470040c6b3000e
:1053f800d0409800e400470010c0b300e040980097
:105408003e2090009040780064004700714098006a
:105418003e2090000000e8009040780064004700bb
:10542800014898003e2090000080e80090407800f5
:1054380064004700114898003e2090006300400037
:105448009040780064004700214898003e20900072
:10545800640040009040780064004700314898009c
:105468003e209000650040009040780064004700ae
:1054780041489800e400470010c0b300d0489800a5
:10548800e400470030c0b300e048980064004700db
:10549800f1002000bd2907000000eb00100798006c
:1054a8000040eb00004f78000000eb001007980068
:1054b800000037001e00900080007800730047004d
:1054c80001004000ff2907000000e000060032004c
:1054d8009e00900073004700614f78001e00900006
:1054e8000000e8001007980030c0b3009e4f10007d
:1054f800f0ff3a0073004700304090000000fb00c6
:10550800e60040001e009000808f5000e9ff3c003c
:1055180073004700a04090000041eb0012cf9800b4
:1055280090c6b30080cf50000200320010c0b30014
:1055380010cf980073004700204090008040eb0097
:1055480001cf9800eb4f50000200320012c0b300a8
:1055580002cf98009ec890000ec9900002c060005b
:105568000004e000d0ff3a0073004700604090005c
:105578000000fb000080fa00000006001c00fa0092
:10558800e400470020c0b30080487800e4004700ea
:1055980020c5b30090409800e4004700d0c0b30095
:1055a800a0409800e400470010c0b300b040980045
:1055b800e40047000040eb00c0409800e4004700ca
:1055c80000c6b300d0409800e400470010c0b30004
:1055d800e0409800e400470030c0b300f040980075
:1055e8006400470081002000682907000000eb00e4
:1055f800100798000040eb00004f780000003700cb
:105608001e009000800078006c00470001004000f8
:10561800ac2907000000e000070032009e0090005f
:105628006c00470000804000104f78001e0090007a
:105638000000e8001007980030c0b3009e4f10002b
:10564800efff3a006c004700304090000000fb007c
:10565800e60040001e009000808f5000e8ff3c00ec
:105668009e0090006c004700808040000040eb00e6
:10567800804878006c004700204090008040eb0094
:10568800215f9800ed4f500002003a0012c0b300ad
:10569800225f98006c00470060409000305f9800df
:1056a8003e5890000004e0000200320011c0b30030
:1056b800315f98003e5890002e59900000406100dc
:1056c8000004e000050032006c00470060409000d4
:1056d8000000fb00400f9800360037000000eb0088
:1056e80010079800000037001e0090008000780026
:1056f8006c00470001004000722907000000e0002c
:10570800070032009e0090006c00470000804000b7
:10571800104f78001e0090000000e8001007980065
:1057280030c0b3009e4f1000efff3a006c004700f6
:10573800304090000000fb00e60040001e00900092
:10574800808f5000e8ff3c006c00470090409000bc
:105758000041eb007257980090c6b30080cf50000c
:105768000200320010c0b300705798006c00470068
:10577800a04090000041eb006257980010c5b300ac
:1057880080cf50000200320010c0b300605798006c
:10579800fe5090006e51900002c060000004e000ce
:1057a800ceff3a006c004700604090000000fb000c
:1057b800400f98004e0890000080fa000000060094
:1057c8008a00fa0030879800014f9900e4004700ea
:1057d80020c0b30080487800e400470020c5b3002b
:1057e80090409800e4004700f0c0b300a040980043
:1057f8000e489100e34040006400470031409800a3
:10580800e40047000040eb00c040980064004700f7
:1058180090409000640047002040900080c0400005
:10582800640047003040900080c04000640047009a
:1058380051409800e400470010c0b300e0409800d1
:10584800640047008e48910071409800e4004700ca
:105858000040eb00804898000000eb00100798001b
:105868000d0037001e009000690140001e009000e6
:10587800800078003e8090000080400090407800d2
:105888006400470000004100014878001e009000b5
:105898000000e800100798000e4891008000fb0007
:1058a8001e009000808f5000eeff3c000e489100d3
:1058b8000000fb00e90040006400470080804000d1
:1058c80030c0b300804878000e4891000000fb000b
:1058d800ea00400064004700ac2807000000eb0025
:1058e800100798000040eb00004f780000003700d8
:1058f8001e00900080007800c00720000e004000c5
:1059080001004000ef2807000000e0000800320016
:105918009e009000c00720000e004000008040005c
:10592800104f78001e0090000000e8001007980053
:1059380030c0b3009e4f1000edff3a00c0072000b2
:105948000e004000304090000000fb00e6004000e0
:105958001e009000808f5000e5ff3c009e009000e4
:10596800c00720000e004000808040000040eb008f
:1059780080487800c00720000e004000604090007a
:105988000000fb000080fa00000006004800fa0052
:10599800e600470020c0b30080487800e6004700d2
:1059a80020c5b30090409800e6004700c0c1b3008e
:1059b800a0409800e60047000040eb00b040980087
:1059c800e60047000040eb00c0409800e6004700b2
:1059d800e0c6b300d0409800e600470030c0b300ee
:1059e800e040980066004700710020006728070023
:1059f8000000eb00200798000000eb00100798005b
:105a08000040eb00004f7800000037001e009000b7
:105a1800800078006d00470001004000a9280700b9
:105a28000000e000060032009e0090006d00470074
:105a3800614f78001e0090000000e80010079800f1
:105a480030c0b3009e4f1000f0ff3a006d004700d1
:105a5800304090000000fb00e60040001e0090006f
:105a6800808f5000e9ff3c006d00470070409000b7
